:1000000048EF01F0946882CF01F053EF01F0EA6A03
:100010000A0EE96EEF500DE0020E016E006A002E2E
:10002000FED7012EFBD7970E006E002EFED7EF2EC7
:10003000F3D7120006520AE1936A8A6A040E096E27
:10004000AF0E0A6EE4DF092EFBD720D1062C0AD0B2
:10005000936A8A68040E096EAF0E0A6ED8DF092E05
:10006000FBD714D10650020818E1C00E086E076ACB
:100070000750070811E3936A08C08AFF040E096E4F
:10008000AF0E0A6EC4DF092EFBD7083208323F0ECE
:100090000816020E0726ECD7F9D00650030816E121
:1000A000800E086E076A075007080FE3936A08C0BE
:1000B0008AFF040E096EAF0E0A6EA9DF092EFBD768
:1000C000D8900832010E0726EED7E0D0065004087B
:1000D00018E1030E086E076A0750070811E3936AD8
:1000E00008C08AFF040E096EAF0E0A6E90DF092E5B
:1000F000FBD70850040DF3CF08F0020E0726ECD70B
:10010000C5D00650050816E1010E086E076A0750B3
:1001100007080FE3936A08C08AFF040E096EAF0E4A
:100120000A6E75DF092EFBD7D8900836010E072618
:10013000EED7ACD0065006080DE1AA0E086E936A01
:1001400008C08AFF040E096EAF0E0A6E60DF092E2A
:10015000FBD79CD0065007080DE1550E086E936A38
:1001600008C08AFF040E096EAF0E0A6E50DF092E1A
:10017000FBD78CD00650080819E1AA0E086E936AC6
:1001800008C08AFF040E096EAF0E0A6E40DF092E0A
:10019000FBD7550E086E936A08C08AFF040E096EDD
:1001A000AF0E0A6E34DF092EFBD770D0076A0750F6
:1001B000070814E3936A8A6A040E096EAF0E0A6E8A
:1001C00026DF092EFBD7936A8A68040E096EAF0EEC
:1001D0000A6E1DDF092EFBD7072AE9D7C00E086E6D
:1001E000076A0750070811E3936A08C08AFF040EE4
:1001F000096EAF0E0A6E0BDF092EFBD708320832EC
:100200003F0E0816020E0726ECD7800E086E076A0E
:10021000075007080FE3936A08C08AFF040E096EAF
:10022000AF0E0A6EF4DE092EFBD7D8900832010E0D
:100230000726EED7030E086E076A0750070811E37A
:10024000936A08C08AFF040E096EAF0E0A6EDFDEE5
:10025000092EFBD70850040DF3CF08F0020E072635
:10026000ECD7010E086E076A075007080FE3936A80
:1002700008C08AFF040E096EAF0E0A6EC8DE092E92
:10028000FBD7D8900836010E0726EED758EF01F0BD
:10029000F86AD09EC180C182C184C196000E936E5F
:1002A000FF0E946EAFD601C005F001C006F0C2D6B5
:0402B000F9D7030077
:020000040030CA
:0E00000000220E0E000181000FC00FE00F4025
:00000001FF
;PIC18F452
;CRC=7F1E  CREATED="09-??.-17 23.59"
